{
  "contractName": "InvestorAssets",
  "abi": [
    {
      "anonymous": false,
      "inputs": [
        {
          "indexed": false,
          "internalType": "uint256",
          "name": "assetId",
          "type": "uint256"
        }
      ],
      "name": "AssetAdded",
      "type": "event"
    },
    {
      "inputs": [],
      "name": "assetCount",
      "outputs": [
        {
          "internalType": "uint256",
          "name": "",
          "type": "uint256"
        }
      ],
      "stateMutability": "view",
      "type": "function",
      "constant": true
    },
    {
      "inputs": [
        {
          "internalType": "uint256",
          "name": "",
          "type": "uint256"
        }
      ],
      "name": "assets",
      "outputs": [
        {
          "internalType": "uint256",
          "name": "id",
          "type": "uint256"
        },
        {
          "internalType": "uint256",
          "name": "investorId",
          "type": "uint256"
        },
        {
          "internalType": "uint256",
          "name": "pickId",
          "type": "uint256"
        },
        {
          "internalType": "uint256",
          "name": "quantity",
          "type": "uint256"
        },
        {
          "internalType": "uint256",
          "name": "price",
          "type": "uint256"
        }
      ],
      "stateMutability": "view",
      "type": "function",
      "constant": true
    },
    {
      "inputs": [
        {
          "internalType": "uint256",
          "name": "assetId",
          "type": "uint256"
        },
        {
          "internalType": "uint256",
          "name": "investorId",
          "type": "uint256"
        },
        {
          "internalType": "uint256",
          "name": "pickId",
          "type": "uint256"
        },
        {
          "internalType": "uint256",
          "name": "quantity",
          "type": "uint256"
        },
        {
          "internalType": "uint256",
          "name": "price",
          "type": "uint256"
        }
      ],
      "name": "addAsset",
      "outputs": [],
      "stateMutability": "nonpayable",
      "type": "function"
    },
    {
      "inputs": [
        {
          "internalType": "uint256",
          "name": "investorId",
          "type": "uint256"
        }
      ],
      "name": "getAssetsByInvestor",
      "outputs": [
        {
          "internalType": "uint256[]",
          "name": "",
          "type": "uint256[]"
        }
      ],
      "stateMutability": "view",
      "type": "function",
      "constant": true
    },
    {
      "inputs": [
        {
          "internalType": "uint256",
          "name": "assetId",
          "type": "uint256"
        }
      ],
      "name": "getAssetById",
      "outputs": [
        {
          "internalType": "uint256",
          "name": "",
          "type": "uint256"
        },
        {
          "internalType": "uint256",
          "name": "",
          "type": "uint256"
        },
        {
          "internalType": "uint256",
          "name": "",
          "type": "uint256"
        },
        {
          "internalType": "uint256",
          "name": "",
          "type": "uint256"
        },
        {
          "internalType": "uint256",
          "name": "",
          "type": "uint256"
        }
      ],
      "stateMutability": "view",
      "type": "function",
      "constant": true
    }
  ],
  "bytecode": "0x608060405234801561001057600080fd5b506107a3806100206000396000f3fe608060405234801561001057600080fd5b50600436106100575760003560e01c80639bde2aef1461005c578063a0f271601461008c578063b3e444a7146100a8578063cf35bdd0146100dc578063eafe7a7414610110575b600080fd5b610076600480360381019061007191906104d7565b61012e565b604051610083919061060b565b60405180910390f35b6100a660048036038101906100a19190610500565b610374565b005b6100c260048036038101906100bd91906104d7565b61043c565b6040516100d3959493929190610648565b60405180910390f35b6100f660048036038101906100f191906104d7565b610486565b604051610107959493929190610648565b60405180910390f35b6101186104bc565b604051610125919061062d565b60405180910390f35b6060600060015467ffffffffffffffff811115610174577f4e487b7100000000000000000000000000000000000000000000000000000000600052604160045260246000fd5b6040519080825280602002602001820160405280156101a25781602001602082028036833780820191505090505b509050600080600190505b6001548111610250578460008083815260200190815260200160002060010154141561023d5760008082815260200190815260200160002060000154838381518110610222577f4e487b7100000000000000000000000000000000000000000000000000000000600052603260045260246000fd5b6020026020010181815250508180610239906106de565b9250505b8080610248906106de565b9150506101ad565b5060008167ffffffffffffffff811115610293577f4e487b7100000000000000000000000000000000000000000000000000000000600052604160045260246000fd5b6040519080825280602002602001820160405280156102c15781602001602082028036833780820191505090505b50905060005b8281101561036857838181518110610308577f4e487b7100000000000000000000000000000000000000000000000000000000600052603260045260246000fd5b6020026020010151828281518110610349577f4e487b7100000000000000000000000000000000000000000000000000000000600052603260045260246000fd5b6020026020010181815250508080610360906106de565b9150506102c7565b50809350505050919050565b60016000815480929190610387906106de565b91905055506040518060a0016040528086815260200185815260200184815260200183815260200182815250600080600154815260200190815260200160002060008201518160000155602082015181600101556040820151816002015560608201518160030155608082015181600401559050507f93a81a8433b364878a9433956ea98b5c547f081b2f66115de4afb79d3647659960015460405161042d919061062d565b60405180910390a15050505050565b600080600080600080600080888152602001908152602001600020905080600001548160010154826002015483600301548460040154955095509550955095505091939590929450565b60006020528060005260406000206000915090508060000154908060010154908060020154908060030154908060040154905085565b60015481565b6000813590506104d181610756565b92915050565b6000602082840312156104e957600080fd5b60006104f7848285016104c2565b91505092915050565b600080600080600060a0868803121561051857600080fd5b6000610526888289016104c2565b9550506020610537888289016104c2565b9450506040610548888289016104c2565b9350506060610559888289016104c2565b925050608061056a888289016104c2565b9150509295509295909350565b600061058383836105ed565b60208301905092915050565b600061059a826106ab565b6105a481856106c3565b93506105af8361069b565b8060005b838110156105e05781516105c78882610577565b97506105d2836106b6565b9250506001810190506105b3565b5085935050505092915050565b6105f6816106d4565b82525050565b610605816106d4565b82525050565b60006020820190508181036000830152610625818461058f565b905092915050565b600060208201905061064260008301846105fc565b92915050565b600060a08201905061065d60008301886105fc565b61066a60208301876105fc565b61067760408301866105fc565b61068460608301856105fc565b61069160808301846105fc565b9695505050505050565b6000819050602082019050919050565b600081519050919050565b6000602082019050919050565b600082825260208201905092915050565b6000819050919050565b60006106e9826106d4565b91507fffffffffffffffffffffffffffffffffffffffffffffffffffffffffffffffff82141561071c5761071b610727565b5b600182019050919050565b7f4e487b7100000000000000000000000000000000000000000000000000000000600052601160045260246000fd5b61075f816106d4565b811461076a57600080fd5b5056fea2646970667358221220d0f14f92d9db14071b8681e1c93b72f79dbd93dbf5160a6dc4549d1855487c1164736f6c63430008000033",
  "immutableReferences": {},
  "source": "// SPDX-License-Identifier: GPL-3.0\r\n\r\npragma solidity >=0.8.0 <0.9.0;\r\n\r\ncontract InvestorAssets {\r\n    struct Asset {\r\n        uint256 id;\r\n        uint256 investorId;\r\n        uint256 pickId;\r\n        uint256 quantity;\r\n        uint256 price;\r\n    }\r\n\r\n    mapping(uint256 => Asset) public assets;\r\n    uint256 public assetCount;\r\n\r\n    event AssetAdded(uint256 assetId);\r\n\r\n    function addAsset(\r\n        uint256 assetId,\r\n        uint256 investorId,\r\n        uint256 pickId,\r\n        uint256 quantity,\r\n        uint256 price\r\n    ) public {\r\n        assetCount++;\r\n        assets[assetCount] = Asset(\r\n            assetId,\r\n            investorId,\r\n            pickId,\r\n            quantity,\r\n            price\r\n        );\r\n        emit AssetAdded(assetCount);\r\n    }\r\n\r\n    function getAssetsByInvestor(uint256 investorId)\r\n        public\r\n        view\r\n        returns (uint256[] memory)\r\n    {\r\n        uint256[] memory investorAssets = new uint256[](assetCount);\r\n        uint256 count = 0;\r\n        for (uint256 i = 1; i <= assetCount; i++) {\r\n            if (assets[i].investorId == investorId) {\r\n                investorAssets[count] = assets[i].id;\r\n                count++;\r\n            }\r\n        }\r\n        uint256[] memory result = new uint256[](count);\r\n        for (uint256 i = 0; i < count; i++) {\r\n            result[i] = investorAssets[i];\r\n        }\r\n        return result;\r\n    }\r\n\r\n    function getAssetById(uint256 assetId) public view returns (uint256, uint256, uint256, uint256, uint256) {\r\n            Asset storage asset = assets[assetId];\r\n            return (\r\n                asset.id,\r\n                asset.investorId,\r\n                asset.pickId,\r\n                asset.quantity,\r\n                asset.price\r\n            );\r\n    }\r\n\r\n\r\n}\r\n",
  "sourcePath": "D:\\Others\\Android\\mini project\\Farm-In\\blockchain\\contracts\\1_assets.sol",
  "compiler": {
    "name": "solc",
    "version": "0.8.0+commit.c7dfd78e.Emscripten.clang"
  },
  "schemaVersion": "3.4.14",
  "updatedAt": "2023-05-31T13:51:51.666Z",
  "networkType": "ethereum",
  "devdoc": {
    "kind": "dev",
    "methods": {},
    "version": 1
  },
  "userdoc": {
    "kind": "user",
    "methods": {},
    "version": 1
  }
}